:020000040800F2
:1000000060080020DD010008E5010008E7010008A4
:10001000E9010008EB010008ED0100080000000004
:100020000000000000000000000000006D29000832
:10003000F1010008000000006B2900086F2900088A
:10004000F7010008F7010008F7010008F7010008B0
:10005000F7010008F7010008F7010008F7010008A0
:10006000F7010008F7010008F7010008F701000890
:10007000F7010008F7010008F7010008F701000880
:10008000F7010008F7010008F7010008F701000870
:10009000F7010008F7010008F7010008F701000860
:1000A000F7010008F7010008F7010008F701000850
:1000B000F7010008F7010008F7010008F701000840
:1000C000F7010008F7010008F7010008F701000830
:1000D000F7010008F7010008F7010008F701000820
:1000E000D50B0008F7010008F7010008F701000828
:1000F000F7010008F7010008F7010008F701000800
:10010000F7010008F7010008F7010008F7010008EF
:10011000F7010008F7010008F7010008F7010008DF
:10012000F7010008F7010008F7010008F7010008CF
:10013000F7010008F7010008F7010008F7010008BF
:10014000F7010008F7010008F7010008F7010008AF
:10015000F7010008F7010008F7010008F70100089F
:10016000F7010008F7010008F7010008F70100088F
:10017000F7010008F7010008F7010008000000007F
:10018000F7010008F7010008F7010008F70100086F
:10019000F7010008F7010008F7010008F70100085F
:1001A000F7010008F7010008F7010008F70100084F
:1001B000F7010008F7010008F7010008F70100083F
:1001C000F7010008F7010008DFF80CD000F07AF81A
:1001D00000480047C12E00086008002006488047FC
:1001E00006480047FEE7FEE7FEE7FEE7FEE7FEE71C
:1001F000FEE7FEE7FEE7FEE7412A0008C901000826
:100200002DE9F05F0546002092469B46884606464B
:10021000814640241BE0284641464746224600F0DE
:1002200041F853465A46C01A914110D31146184618
:10023000224600F028F82D1A67EB01084F462246A7
:100240000120002100F01FF817EB00094E41201E8D
:10025000A4F10104DFDC484631462A464346BDE8A6
:10026000F09F40EA01039B0703D009E008C9121F71
:1002700008C0042AFAD203E011F8013B00F8013B60
:10028000521EF9D27047202A04DB203A00FA02F10C
:10029000002070479140C2F1200320FA03F3194374
:1002A00090407047202A04DB203A21FA02F0002116
:1002B000704721FA02F3D040C2F120029140084376
:1002C00019467047064C074D06E0E06840F0010310
:1002D00094E8070098471034AC42F6D3FFF778FF54
:1002E000E04A0008004B00081CB5044600F002F983
:1002F000034600F0EFF802460020CDE9000406486E
:10030000064C006800EB800101EBC00104EB8101A9
:10031000C96D02F0C9F81CBD1C000020400200207D
:100320000648C02330B408240522046061034361F9
:10033000C261C16230BC01F081BA0000BC01002082
:1003400030B40A4C0A4B246804EB440403EB8403E6
:100350009B689C881D68E41DDB88E408203A14FB38
:1003600002F203FB025230BC00F0DCBB1C00002098
:1003700028030020094810B50068816941F0010197
:10038000816101220648110301F036F80122054877
:10039000BDE81040082101F02FB800004002002005
:1003A00000200240002802402DE9F04700270446C3
:1003B0001546894610463A4600E0521C10F8011BCB
:1003C0000029FAD100F086F8DFF89CC0012B274EF7
:1003D000DCF8001001EB410106EB81018968898896
:1003E000B0FBF1F002D0022B09D104E0801A48439F
:1003F00004EB500002E0801A4843001B84B247F629
:10040000FF71601E884200D30124E04600F062F8CC
:100410000146D8F8000000EB400006EB8000806841
:10042000808807FB101189B2814213D3012012E0AA
:1004300049462046FFF784FFD8F800007F1CBFB272
:100440006D1C00EB400006EB800080688088204433
:1004500084B2DBE700202A780AB1012100E0002104
:100460000842E5D1BDE8F0871C00002028030020E9
:10047000164B70B506460D461868154C00EB80010A
:1004800001EBC00004EB8000806C02280ED000F06D
:1004900021F8196805FB006001EB810303EBC10142
:1004A00004EB8101C96D41F8202070BD00F012F805
:1004B000196805FB006001EB810303EBC10104EB4C
:1004C0008101C96D21F8102070BD00001C000020C2
:1004D000400200200548006800EB800101EBC000ED
:1004E000034901EB8000006E704700001C000020F3
:1004F000400200200548006800EB800101EBC000CD
:10050000034901EB8000406E704700001C00002092
:10051000400200202DE9F041224C2820092140F220
:100520001B1604F1140840F21525352240F21D1C5B
:100530000B2340F2352788E8EF1000212046FFF713
:10054000EFFE4FF4F07222664FF48871616600206E
:1005500084F8340084F8350084F836006060A060C8
:10056000114AE06022602061204600F0B8FF18B90F
:100570000021204600F05CF80A4800F0B3FF012299
:100580000A48110300F038FF09480122082100F051
:1005900033FF00F009F9074800F0ECF80020BDE84F
:1005A000F08100004002002000680140002002406D
:1005B000002802402000002030B58DB00A460023FC
:1005C00004460093FFF786FFCDE90103FFF792FF92
:1005D000FF21039007208DF8303009924FF4C06559
:1005E0008DF83130CDE9043106938DF83230CDE904
:1005F0000750FFF76FFF0A90FFF77CFF0B90224632
:100600000948694600F042FF074904EB44004FF0F7
:10061000FF34E83101EB800223065460034C946000
:1006200041F820300DB030BD4002002020000020F5
:100630004748F0B5016887B041F08061016000680B
:1006400000F08060059042481438016841F40001D0
:100650000160016801F400010591016841F0100199
:100660000160016801F010010591016841F040014D
:100670000160016801F040010591016841F4807159
:100680000160016801F480710591016841F4007115
:100690000160016801F400710591016841F4806115
:1006A0000160016801F480610591016841F4807185
:1006B0000160016801F480710591016841F4806175
:1006C0000160006802240E2500F48060059010206F
:1006D000CDE9000402A8002180E832001D486946E7
:1006E00000F09EFDE6026946092004901A48CDE913
:1006F000006400F095FD194F4FF46640CDE9000409
:1007000069463846049500F08BFD4EF6FF70694649
:10071000CDE900041248049500F082FD0495F7200D
:10072000104D6946CDE90004284600F079FD01240A
:1007300069463846CDE9006400F072FD082069463C
:10074000CDE90004284600F06BFD07B0F0BD0000C5
:1007500044380240001002400018024000200240CD
:100760000024024000280240014908607047000050
:100770001C0000200449054A096801EB410102EB15
:1007800081018860704700001C00002028030020C1
:100790000349044A096801EB410142F8210070470E
:1007A0001C000020280300201B4802222DE9F041F4
:1007B00000F13401174E07230660042581E82C0060
:1007C000CB6000240A61D7014A6110238A6191023B
:1007D00044604026C0E902454A00C0E90741C0E93B
:1007E00009241030002180E8C800103800F05EF8BD
:1007F00009490948343101F029FD084D10B10120A3
:10080000287000E02C7040F2036000F009F82878AE
:10081000BDE8F081400100A0000400202800002075
:100820002DE9F843204C102700254FF6FF780126CC
:10083000009521468146C4E90067C4E90265A1F13B
:100840005000424601F036FD012000F02BFC022052
:100850002146C4E90007C4E90265A1F150004246FF
:1008600001F028FD03214246C4E900170820214673
:10087000C4E90205A1F1500001F01CFD4FF408701D
:10088000009004214246C4E90260C4E900172146F1
:10089000A1F1500001F00EFDA4F150004946BDE861
:1008A000F84301F0F6BC000050040020F0B5044607
:1008B0004F4887B0016841F00101016000684C4970
:1008C00000F0010005900839086840F480000860D5
:1008D000086800F480000590086840F00400086093
:1008E000086800F004000590086840F008000860FF
:1008F000086800F008000590086840F010000860E3
:10090000086800F010000590086840F020000860BA
:10091000086800F020000590086840F0400008607A
:10092000086800F040000590086840F0800008600A
:10093000086801210C2200F0800005900220CDE91A
:10094000010108230093CDE903022A48694600F01B
:1009500067FC4CF2037000902748694600F060FC89
:100960004FF6837000902548694600F059FC4FF619
:100970003F0000902248694600F052FC48F23310D4
:1009800000902048694600F04BFC282000901E484B
:10099000694600F045FC1D494FF4007500224FF0F8
:1009A000800CEE006F004A606801C1E902C5C1E930
:1009B00004761831164EC300032581E80D00C1E905
:1009C00003254A618A6141F8186D21630F488C63E1
:1009D00000F0C4FA0D4800F0F3FA00220F2138208D
:1009E00000F0C4FE382000F0B5FE07B0F0BD0000F6
:1009F0003838024000080240000C0240001002405B
:100A00000014024000180240001C02404003002075
:100A100010640240F0B5059C44EA034503685C6C31
:100A200004F040442C435C640368DA634268B2F526
:100A3000403F02D00068C160F0BD01F47F4285688C
:100A400001F47F04224301F07F4301F47F0701F4A6
:100A50007F46CCB2BDB1012D16D001F47F02C1F3A7
:100A6000C401D20C022D11D0032D14D0320B390D3C
:100A700015011A0F45EA0123210943EA02320A430C
:100A800000688263F0BD1A432243F9E7B30A5B01B1
:100A900043EAC222F3E7F40ADB0F640144EA82224C
:100AA00042EAC332EBE7000001681823CAB2103AE9
:100AB000B2FBF3F2054B6FF30901032A9B5CC3659C
:100AC00000D9091D816508467047000008300008FC
:100AD00010B583694FF0C074826A0146002053B19B
:100AE000B3F5005F15D072B1012A0CD0022A0AD0EA
:100AF000032A09D104E01AB1012A06D0022A03D13F
:100B0000C96AC90100D5012010BDC96AA142FAD045
:100B100010BD002AF7D0012AF2D0022AF3D0032A0E
:100B2000F3D010BD2DE9F74F29480026DFF89CA02F
:100B3000006800EB40000AEB800080688588C78869
:100B4000E81D834620F00700401B00F0FF0939E054
:100B50004FEADB010298012901FB060009D00229B6
:100B600009D0017842788378080440EA02201843CB
:100B700003E0007801E0008840BA002480461AE0D3
:100B80002A1B02EB09010120491E884010EA080FC8
:100B9000009800EB04020E48016890B201EB41029C
:100BA00002D05AF8222002E00AEB82014A68019939
:100BB000FFF75EFC641CAC42E2D30198401C80B29B
:100BC0000190761CBE42C3D3BDE8FE8F28030020EF
:100BD0001C0000204FF4006000F016BBF0B5D1E916
:100BE0000125D1E90343D1E905762A43D1F800C0B4
:100BF00044EA0304D1E9073542EA0402496A42EAB9
:100C00000702BCF1010F42EA060208D004681A4349
:100C10002A430A43E30BDB031A4302600BE0066836
:100C200044682B4326F4F84529430B4303606FF3D4
:100C30000E04224342600020F0BD426942EA4101B5
:100C400041610020704738B591E81C00C9686FF019
:100C50001F051A4305EB441444EA41210A4300925C
:100C60000261002038BD00002DE9F043914691E873
:100C70001C006FF00F05521E2E0105EB03131A43E3
:100C80000B7E06EB04268C8A2F034FEA054C0D8A57
:100C900032434FF07F4808EB0366CB68B9F1010F90
:100CA00007EB05450CEB04540CD081683F1107EBB2
:100CB00003331A432A432243324301F070410A436B
:100CC000826011E08168DFF828C0C7681B03A3F5C4
:100CD000805323432A4301EA0C0132430B438360D0
:100CE00007F070442243C2600020BDE8F08300009A
:100CF000FF0F0FFF70B590F8383000EB011218327B
:100D0000012B20D0234C012680F83860022380F884
:100D10003930158953680A2B43EA054515D0092B4C
:100D200013D0137B45EA0363A1B10168CD69A543E4
:100D30001D43CD61016813680B6151680A291CD0FD
:100D400009291AD01EE0022070BDD36803F07F434A
:100D50002B43E9E70568696AA143194369620168A1
:100D600013688B6151680A2901D009290AD1D16819
:100D7000026821F07F41916204E0D168026821F0AD
:100D80007F411162002180F8396080F838100846F0
:100D900070BD00000F0003FF70B5040004D094F88C
:100DA0003900002510B106E0012070BD204684F80E
:100DB000385000F01FF8022084F83900D4E900030D
:100DC0000121026822F440321A4302602068A368BD
:100DD000426B22F007021A4342632068E368026C08
:100DE0006FF30D021A430264E56384F839100020A2
:100DF00070BD000008B500680649884208D1064861
:100E0000016841F400010160006800F400000090F6
:100E100008BD000000B00240303802402DE9F84320
:100E20000026044604270D4600964FF0030800688C
:100E30000068C00727D000F0E5FA81461FE040684F
:100E4000009010F0210F11D00098800603D5E06BC0
:100E500040F00200E0630098C00703D0E06B40F070
:100E60000100E06320682121816034E0681C06D025
:100E7000C5B300F0C7FAA0EB0900A8423CD820682F
:100E800041688907DBD52068C169890602D4406AB8
:100E900080063FD500F0B6FA814637E04068009002
:100EA00010F0290F1FD00098000703D5E06B40F029
:100EB0000400E0630098800603D5E06B40F0020078
:100EC000E0630098C00703D0E06B40F00100E063EE
:100ED00021682920886084F83970012084F83860FE
:100EE000BDE8F88308E0681C10D02DB100F08AFA44
:100EF000A0EB0900A84209D9E16B84F8386041F001
:100F00002001E16384F839800320E9E72068416823
:100F1000C906C3D5226812210120916084F83900E6
:100F2000002084F83860DBE7F8B50446069894F8AA
:100F30003850012D10D0012684F83860022584F83D
:100F4000395000902046FFF765FD2068016841F0A8
:100F5000010101600020F8BD0220F8BD70B5040059
:100F60002BD094F83500022826D0206800252122B5
:100F7000016821F00101016020680560206845607A
:100F8000206885602068C56020680561206842612E
:100F90002046FFF789FD94F85C203F219140816055
:100FA000E56325646564A564E5642565656584F885
:100FB0003550002084F8345070BD012070BD000011
:100FC0002DE9F047044600F01DFA054664B14FF0E4
:100FD000000984F83490022184F8351020680168F3
:100FE00021F0010101600EE00120BDE8F08700BFA3
:100FF00000F008FA401B052805D92021616503206F
:1010000084F83500F1E720680068C007F0D1D4E922
:101010000020D4E90251D4E9043C284304F1180526
:1010200019430843116895E8E00140EA0C001C4BA5
:101030002843194040EA060040EA0700B8F1040FCF
:1010400040EA010003D1D4E90B13194308431060AF
:1010500020680126656A4069042D20F0070045EAF2
:1010600000050CD1D4E90A01054341B12046FFF740
:101070002FFD20B14020606584F83560B4E720681A
:1010800045612046FFF710FD94F85C303F229A40FE
:101090008260C4F8549084F835600020A5E7000011
:1010A0003F8010F070B5044600F0ACF90546601CB6
:1010B00002D004480078044400F0A4F9401BA04288
:1010C000FAD370BD0C0000202248F0B5016887B04B
:1010D00000293CD1012101601F48016841F0010154
:1010E0000160006802240025694600F001000590B7
:1010F00003264FF683700C278DE8F100174800F0A7
:101100008FF8602069468DE8F100154800F088F8F6
:1011100048F2331069468DE8F100124800F080F87B
:101120004CF2037069468DE8F1000F4800F078F842
:101130004FF63F0069468DE8F1000C4800F070F86A
:10114000202069468DE8F100094800F069F807B0F1
:10115000F0BD0000040000203838024000100240BA
:101160000004024000180240000C0240001402403B
:10117000001C0240B0F5006F10B51FD1104C4FF0AD
:1011800003032068C043206006D000210DA208465A
:10119000FFF70AF90FA005E0002112A20846FFF7A9
:1011A00003F914A001F058FE2068002806D100229F
:1011B0001448BDE81040022100F01EB910BD000027
:1011C000000000204C454420464C415348203D201F
:1011D000310000004C454420464C415348203D20FE
:1011E000310D0A004C454420464C415348203D20D7
:1011F000300000004C454420464C415348203D20DF
:10120000300D0A0000200240044910B50A6802426D
:1012100002D00860FFF7AEFF10BD0000143C014093
:101220002DE9F84FDFF89CE100224FF001084FF064
:10123000030B4FF00F0A00BF0B6808FA02F42340BB
:10124000A34271D14D68022D01D0122D0FD1D508C6
:101250000E69570700EB8505A9462D6AFF0E0AFAAD
:1012600007FCBE4025EA0C052E43C9F820600F7923
:10127000550006680BFA05FC07F0030726EA0C0682
:10128000AF40374307604E68012E05D0022E03D0D1
:10129000112E01D0122E0ED18668CF6826EA0C06D8
:1012A000AF403743876046680F79A643C7F30017FE
:1012B000974037434760C4688E6824EA0C04AE4008
:1012C0002643C6604C68E40075D53F4C256845F45C
:1012D00080452560246822F00306950704F48044C5
:1012E00000943A4C2D0F2644D6F80848DFF8E0C0A9
:1012F0000AFA05F7604524EA070401D100272EE029
:10130000344FB84201D1012729E0334FB84201D10F
:10131000022724E0314FB84201D103271FE0304FAC
:10132000B84202D104271AE045E02E4FB84201D15D
:10133000052714E02C4FB84201D106270FE02B4FB0
:10134000B84201D107270AE0294FB84201D1082746
:1013500005E0284FB84201D1092700E00A27AF4035
:1013600027437546C6F808784E68DEF80040F60355
:1013700024EA030400D51C43124E2C60361D4D6830
:101380003468AD0324EA030400D51C430D4F3460D8
:1013900008374D683C68ED0224EA030400D51C437D
:1013A000084D3C600C354E682C68B60224EA0304F4
:1013B00000D51C432C60521C102AFFF43DAFBDE841
:1013C000F88F0000003C01404438024000300140EA
:1013D000000002400004024000080240000C0240ED
:1013E000001002400014024000180240001C02409D
:1013F00000200240002402400AB1816170470904C4
:10140000FBE7000001488068704700000C000020E6
:101410000248816802781144816070470C00002006
:10142000094810B5016841F400710160016841F498
:1014300080710160032000F0B9F9002000F006F887
:1014400000F046F9002010BD003C024070B50D4D83
:1014500004464FF47A700C4A29781268B0FBF1F018
:10146000B2FBF0F000F04BFF48B9102C07D200227D
:101470002146501E00F07AF900206C6070BD0120FA
:1014800070BD00000C000020180000202DE9F04184
:10149000044690F8A00016460F4601281DD00125ED
:1014A00084F8A050022084F8A10006EB860000EB2F
:1014B000C600342204EB80003830FEF7D2FE3246FC
:1014C0003946204601F030F8216800204D6284F84A
:1014D000A15084F8A000BDE8F0810220FBE790F85D
:1014E000A10070472DE9F041040004D094F8A10058
:1014F000002518B107E00120BDE8F081204684F8FE
:10150000A05000F06FF83648022184F8A1100122A3
:1015100002CC8B6923F070438B6194E84A00194335
:10152000E3681E4354F8043D31439E693143996199
:1015300021688B6803408B602168A68AA7698B6845
:101540003B4343EA06438B602168CB680340CB6092
:101550002168A38B276ACE683E4346EA0346CE60E5
:1015600021680B6903400B612168A68CA76A0B698F
:101570003B4343EA06430B6121684B6903404B61DF
:101580002168A38D266B4869304340EA03404861D7
:10159000236894F8351094F83600DE6A000406F0EB
:1015A0007F46DE62236840EA012094F83460D96AFD
:1015B00031430143D9622068416B41F0040141632A
:1015C0002068416B41F0020141632068816941F06C
:1015D00001018161C4F8A45084F8A12000208BE7A8
:1015E00000F800F0F0B5006887B0304988425AD161
:1015F0002F48016841F080610160006802240025E5
:10160000694600F0806005904FF440700E268DE82A
:1016100031002848CDE90346FFF702FE4FF404608D
:10162000254F8DE83100CDE9034669463846FFF77E
:10163000F7FD4FF4C85069468DE831001F48CDE9E9
:101640000346FFF7EDFD44F2336069468DE8310053
:101650001B48CDE90346FFF7E3FD802069468DE88E
:1016600031001848CDE90346FFF7DAFD6002092191
:101670008DE83100CDE9034169463846FFF7D0FDDA
:10168000082069468DE831000F48CDE90346FFF791
:10169000C7FD4FF4224069468DE831000B48CDE983
:1016A0000346FFF7BDFD07B0F0BD00000068014034
:1016B000443802400004024000180240000002408A
:1016C0000020024000280240000C0240001C0240A2
:1016D0001F4808B5016841F080510160006800F0C2
:1016E000805000901A48001D016841F4804101605B
:1016F000006800F480400090032000F057F80022BA
:101700006FF00B00114600F031F800226FF00A0074
:10171000114600F02BF800226FF00900114600F08E
:1017200025F80022501F114600F020F80022101F5B
:10173000114600F01BF80022901E114600F016F82A
:101740000022BDE80840501E114600F00FB800000E
:1017500040380240410900F01F028900012001F1D8
:10176000E0219040C1F80001704700000E4BF0B43A
:101770001B680D46C3F30223C3F10706042E00D9EC
:101780000426191D072901D2002300E0DB1E0124D5
:1017900004FA06F19C40491E2940641E99401440F9
:1017A0002143F0BC01F0D0B80CED00E0064900F098
:1017B000070210B54FF6FF040868044B204040EACA
:1017C00002201843086010BD0CED00E00000FA058F
:1017D0001848F8B5016841F0805101600068164C66
:1017E00000F080500090206840F480302060FFF7C7
:1017F00009FE4FF47A76054605E000BFFFF702FECA
:10180000401BB0420FD86068C003F7D5206840F491
:1018100000302060FFF7F6FD054606E0FFF7F2FD19
:10182000401BB04201D90320F8BD60688003F5D5A4
:101830000020F8BD40380240007000402DE9F84F0C
:1018400004460078DFF824944FF000063746C007BE
:101850000ED0D9F8001021F40001C9F80010D9F811
:101860000010626B1143C9F80010606B00B90126CB
:10187000FE4D2068843500030ED5E16B286820F406
:10188000401008432860E06BB0F5801F01D010B114
:1018900002E0012600E0012720684FF4800BC0021F
:1018A0000CD5216C286820F4400008432860206C87
:1018B000584501D1012601E000B901272068C10186
:1018C00000D50126800666D5E8483830016841F029
:1018D000805101600068DFF898A300F0805000900C
:1018E000DAF8001041F48071CAF80010FFF78AFDA1
:1018F000804605E0FFF786FDA0EB080064287DD850
:10190000DAF80000C005F5D5DFF8608308F1680853
:10191000D8F8000010F440702AD0218E01F44071F4
:10192000814225D0D8F80010D8F8002021F4407169
:1019300042F48032C8F80020D8F8002022F4803227
:10194000C8F80020C8F80010D8F80000C0070FD071
:10195000FFF758FD824607E0FFF754FDA0EB0A01B0
:1019600041F288308142CAD8D8F800008007F3D508
:10197000206BC0F3012103297ED0D9F8001021F497
:10198000F811C9F80010228ED8F80010C2F30B022B
:101990001143C8F800102078C00607D5286820F049
:1019A000807028602868A16B084328602188AF48B0
:1019B0008830490405D5626E016821F44031114335
:1019C00001602188090405D5A26E016821F4402137
:1019D000114301602168C90305D5E26E016821F455
:1019E0004011114301602168890305D5226F016808
:1019F00021F4400111430160217800E018E149061B
:101A000005D5626C016821F0030111430160217862
:101A1000090605D5A26C016821F00C011143016093
:101A20002188C90505D5E26C016821F03001114318
:101A300001602188890505D5226D016821F0C0016A
:101A4000114301602188490505D5626D016821F4C3
:101A50004071114301602188090505D5A26D016817
:101A600021F44061114301602188C90407D5E26D6A
:101A7000016821F4405100E041E0114301602188F8
:101A8000890405D5226E016821F4404111430160AB
:101A90002168490205D5A26F016821F080611143D8
:101AA000016021684FF0006A890209D5E26F016880
:101AB00021F0006111430160E16F514500D1012720
:101AC00021680A0700D50127490305D5626F01681F
:101AD00021F04071114301602168090206D5D4F854
:101AE0008020016821F0805111430160DFF884916A
:101AF000012E0ED02068B0F1007F0AD08FE05E4A40
:101B0000D9F80030104023F4F8120243C9F800203D
:101B100039E7D9F800004E4620F08060C9F800008F
:101B2000FFF770FC804605E0FFF76CFCA0EB0800B7
:101B300064287DD830680001F6D421784B487C3089
:101B4000C90712D0616B81B9237A62680168D0F845
:101B500000C09201C1F3014142EA0142CCF30361AA
:101B600042EA016141EA0371016021680A0303D579
:101B7000E26BB2F5801F04D0C9021AD5216C594519
:101B800017D16368016894F80CC002689B01C1F327
:101B9000014143EA0141C2F3027241EA0C6141EAA8
:101BA000027101602968626A21F01F01521E11430F
:101BB00029602168C90110D5238A62680168D0F8BC
:101BC00000C09201C1F3036142EA034242EA0162AA
:101BD000CCF3027142EA01710160216889010CD5E0
:101BE0006168228A237B94F808C0890141EA024196
:101BF00041EA036141EA0C7101603168B04641F08D
:101C000080613160FFF7FEFB064604E0FFF7FAFB58
:101C1000801B64280CD8D8F800000001F6D56FB3FB
:101C2000D9F800004E4620F08050C9F8000000E0CE
:101C300079E0FFF7E7FB074605E000BFFFF7E2FBAF
:101C4000C01B64286FD83068C0438000F6D50748B1
:101C5000216880300A0301D5E26B1AB1C90225D58B
:101C6000216C19BB63690168277E08E008380240CF
:101C70000070004000380240FFFCFF0F5AE002688D
:101C8000C1F301419B0143EA0143C2F3027143EAFC
:101C9000076242EA0171016029686FF0FF03A26ADE
:101CA00021F4F85103EB02221143296021688902D3
:101CB00012D5E16F51450FD1238C62690168076825
:101CC0009201C1F3036142EA034242EA0162C7F3AF
:101CD000027142EA017101602178090716D5616934
:101CE0000268D0F800C08B01277FC2F30362CCF3F7
:101CF000014143EA014141EA026141EA07710160A1
:101D00002868E16A20F4403008432860306840F0D9
:101D100080503060FFF776FB044607E0FFF772FB68
:101D2000001B642802D90320BDE8F88F3068C04347
:101D30008000F3D40020F7E72DE9F04705000F46B7
:101D400063D0444E306800F00F00B84209D23068CA
:101D500020F00F0038433060306800F00F00B842C8
:101D600053D128683C4C810712D5400703D5206821
:101D700040F4E05020602878000703D5206840F444
:101D800060402060A968206820F0F00008432060CF
:101D90002878C0072AD0304968680839012810D04F
:101DA0000968022810D0890700292EDA216821F05D
:101DB000030101432160FFF725FB804641F288398A
:101DC0000DE009688903EFE78901EDE7FFF71AFBEA
:101DD000A0EB0801494502D90320BDE8F0876868F7
:101DE000216801F00C01B1EB800FEFD1306800F0F9
:101DF0000F00B8420BD9306820F00F003843306034
:101E0000306800F00F00B84201D00120E5E72878E3
:101E1000400705D5E968206820F4E05008432060B9
:101E20002878000706D52869216821F4604141EA35
:101E3000C000206000F03CF82168084AC1F303119B
:101E4000515CC840064908600020FFF7FFFA0020F7
:101E5000C3E70000003C0240083802401030000890
:101E6000180000200148006870470000180000209A
:101E70000449054809680068044AC1F38221515C9D
:101E8000C840704708380240180000202030000881
:101E90000449054809680068044AC1F34231515CAD
:101EA000C840704708380240180000202030000861
:101EB000154910B51548096811F00C0213D01449E2
:101EC000042A0FD0082A0ED10F4C241F2268236841
:101ED00002F03F025B0207D52068C0F38810A0FB28
:101EE000010106E0084610BD2168C1F38811A1FB7D
:101EF00000010023FEF784F92168C1F30141491C68
:101F00004900B0FBF1F010BD083802400024F40095
:101F100040787D012DE9F84F05004FF000076ED0A5
:101F20002878DFF81C93A9F1040AC007AAF1040479
:101F30004CD0D9F800104846C1F38101012908D0DE
:101F40000068C0F3810002280AD1DAF800004002DC
:101F500006D52068800339D568680028DFD035E0D1
:101F60006868B0F5803F0BD010B1B0F5A02F11D04C
:101F7000206820F480302060206820F4802002E077
:101F8000206840F480302060686890B1FFF73AFA2A
:101F900006460AE0206840F480202060F0E700BF99
:101FA000FFF730FA801B642872D820688003F7D5C9
:101FB0000CE0FFF727FA064605E000BFFFF722FA1C
:101FC000801B6428F0D820688003F7D42878800725
:101FD00042D5D9F80010484611F00C0F08D000681F
:101FE000C0F3810002280BD1DAF80000400207D4C8
:101FF0002068800718D5E868012800D114E01CE1AA
:10200000E8680028206817D040F001002060FFF742
:10201000F9F9064605E000BFFFF7F4F9801B022836
:10202000C2D820688007F7D52869216821F0F80117
:1020300041EAC00020600FE020F001002060FFF7BF
:10204000E1F9064605E000BFFFF7DCF9801B022836
:102050001ED820688007F7D42878000729D578484B
:1020600069696C3000298046016812D041F0010195
:102070000160FFF7C7F9064605E000BFFFF7C2F9A8
:10208000801B022804D8D8F800008007F6D510E09D
:1020900089E021F001010160FFF7B4F9064604E090
:1020A000FFF7B0F9801B02287DD8D8F80000800720
:1020B000F6D4287840076BD5DFF8848108F138081A
:1020C000D8F80000C0000BD4D8F8001041F08051BF
:1020D000C8F80010D8F80000012700F080500090E8
:1020E00058480168C90512D40168834641F48071DB
:1020F0000160FFF787F9064605E000BFFFF782F9A8
:10210000801B64284FD8DBF80000C005F6D54C4E84
:10211000A868683601280AD008B1052811D03068AF
:1021200020F001003060306820F0040002E03068E8
:1021300040F001003060A868A0B1FFF763F9834662
:102140000CE0306840F004003060F0E7FFF75AF927
:10215000A0EB0B0141F28830814266D830688007DD
:10216000F4D50EE0FFF74EF9834607E0FFF74AF992
:10217000A0EB0B0141F28830814256D830688007CD
:10218000F4D42FB1D8F8001021F08051C8F8001015
:10219000A869C8B3D9F80010C1F3810102294CD055
:1021A0000228206800E040E020F08070206003D02A
:1021B000FFF728F905463BE0FFF724F9064604E05F
:1021C000FFF720F9801B02282FD820688001F7D460
:1021D000D5E90962D5E907011B4B570895F82C2072
:1021E000084303EB074343EA8611084340EA0260D1
:1021F00040F00050CAF80000206840F08070206075
:10220000FFF700F9054606E015E000BFFFF7FAF812
:10221000401B022809D820688001F7D50BE000BFD9
:10222000FFF7F0F8401B022802D90320BDE8F88F21
:1022300020688001F4D40020F8E70120F6E70000D0
:1022400008380240007000400000FFFF70B5040035
:102250000D4603D094F82C0010B107E0012070BDAA
:10226000002084F82D00204600F011F8022084F8A8
:102270002C002068211DFEF7B1FCD4E9000229469C
:10228000FEF7F2FC012084F82C00002070BDFEF760
:102290001BBF10B5044690F82C00022809D002207C
:1022A00084F82C002068FEF7C8FC012084F82C007C
:1022B000002010BD70B5044690F82C000D46022891
:1022C0000DD0022084F82C002068FEF7BCFC2868A2
:1022D000022805D05FF0010084F82C00002070BDBA
:1022E0000520F9E704284FF0E020016903D021F030
:1022F00004010161704741F00401FAE77047401E94
:10230000B0F1807F10B501D3012010BD4FF0E02463
:1023100060610F21601700F017FB0020A06107210A
:10232000216110BD10B5FFF7E9FF10BD10B5040025
:1023300003D094F8690010B107E0012010BD00201F
:1023400084F86800204600F027F8242084F869000B
:102350002068016821F001010160204600F01EFCA8
:102360000128EBD0606A10B1204600F093FB206892
:10237000416821F4904141602068816821F02A0180
:1023800081602068016841F0010101602046BDE8DC
:10239000104000F0E3BB0000F0B5006887B01049C2
:1023A00088421AD10F48016841F0100101600068AD
:1023B00002240025694600F0100005900326072737
:1023C00080208DE8F1000848FEF72AFF20026946C8
:1023D0008DE8F1000548FEF723FF07B0F0BD0000CF
:1023E0000010014044380240000402400000024056
:1023F0002DE9F843044690F869001F4616460D463D
:1024000020284ED1C5B1BEB194F86800012848D04B
:10241000012284F8682021214FF00008C4F86C8064
:1024200084F869105034FEF7EDFF268081466680FF
:10243000503C4FF4805619E00120BDE8F88300BFFE
:10244000B4F85200401EA4F8520000224B468021EE
:102450002046009700F0CEFCA0B9A068B04201D1A0
:10246000206988B115F8010B21688862B4F8520020
:102470000028E5D100224B4640212046009700F07D
:10248000B9FC38B10320D8E735F8020B2168C0F356
:102490000800EAE7202184F86910002084F86880A9
:1024A000CBE70220C9E700002DE9F84307461B48A7
:1024B0000E461546DDE908184FF440321C464260CE
:1024C000174A126802EB820303EBC202A0F1A803D1
:1024D00003EB8202926C022A00D000228260114A31
:1024E0000260C1600D48FEF757FC002814D10B486C
:1024F0003946FEF7FFFB00280ED108482B4632462E
:1025000041460094FEF710FD002805D1BDE8F843D0
:1025100002480A21FEF782BCBDE8F883E8020020E9
:102520001C00002000B002402DE9FE4F81460068EB
:10253000882493468D888C2204EBCB178A46C36887
:102540009421BE46C459C3F30B432B4404F4704496
:102550001F04019702EBCB1240F80E4001EBCB13A6
:10256000DAF800709C214FF0AC0C01EBCB1440F278
:10257000077102910CEBCB11D9F800C0982500200F
:10258000CDF800C0A02605EBCB15DCF80CC006EB9F
:10259000CB16CCF30B4C0CF1010C07EB0C08DDF85F
:1025A00000C0019F48EA07084CF80E80D9F8007077
:1025B000BAF80CC0B846FF68C7F30A0767444FEA89
:1025C000074E58F8027007F4704C48F802C0D9F86A
:1025D00000C0DAF80870DCF80C80C8F30A0808F1CB
:1025E0000108B84448EA0E084CF80280D9F80020E7
:1025F000D75827F00707D750D9F80070DAF810201D
:10260000FA509AF831209AF818304FEA022C9AF8CA
:102610003220120442EA0362D9F800301F591851DF
:102620009AF8303043EA0C031343D9F800201351D1
:10263000D9F80020535923F0FF035351D9F8002053
:10264000DAF814305351D9F800209359029CA3436F
:102650009351D9F80030DAE9072422439A51D9F886
:10266000002053585050D9F80020DAF82400505078
:10267000DAF81000C8B301283AD004283AD002286A
:1026800038D0032836D0072834D00120D9F80030BC
:10269000B02505EBCB11B42284245D5802EBCB129C
:1026A00005F0E0255D50DAE9003504EBCB14EB1AB8
:1026B000BAF8285043434543D9F80000DB1C43EAED
:1026C00005434350D9F8000081586FF30A01815047
:1026D000D9F80000DAF82C108150D9F8000001591F
:1026E00041F001010151BDE8FE8FFFE70420CDE775
:1026F0000320CBE70220C9E70D4802220B4B002143
:1027000010B50360C0E90112C160C0E90A1201639B
:102710004163FEF741FB00B1FEE705480121FEF7EA
:10272000E9FA002800D0FEE710BD000000B002402A
:1027300030000020F0B51248042500220F4F87B06A
:102740008023C0E90225C0E9063240240262012646
:10275000426210218262C0E90414C0E9007600914F
:102760000191029103910491059106916946FFF749
:102770006DFD002800D0FEE707B0F0BD400100A0CD
:10278000880100202F4800B587B0016841F0100192
:102790000160016801F010010591016841F002013A
:1027A0000160016801F002010591016841F0010139
:1027B0000160016801F001010591016841F04001EB
:1027C0000160016801F040010591016841F00801D4
:1027D0000160016801F008010591016841F4807110
:1027E0000160016801F480710591016841F4806124
:1027F0000160016801F480610591016841F02001E8
:102800000160016801F020010591016841F080013B
:102810000160006800220C4900F0800005904FF430
:1028200000608DE8070009486946FEF7F9FC0022C0
:1028300028201146FEF79AFF2820FEF78BFF07B0ED
:1028400000BD00003038024000001110002002409E
:102850002E480721F0B52C4B9BB003600024446048
:10286000052584600322C4600E23046114304FF4F4
:10287000FA7C4FF4F77640F2151740F2171E80E805
:10288000EE5080F8204080F8214080F82240143833
:10289000FEF728FE00B1FEE7022600940194002214
:1028A00002947702CDE9034605946946CDE90647CF
:1028B0008DF830408DF831401448CDE908540A9421
:1028C0000B948DF83240FEF7E1FD00B1FEE70D9468
:1028D0000122CDE910460E940DA90F941294CDE972
:1028E0001347CDE915548DF864408DF865400748CD
:1028F000179418948DF86640FEF7C8FD002800D0A4
:10290000FEE71BB0F0BD0000006801407000002031
:102910000C48002110B50A4C0C224FF416530460E9
:10292000C0E90131C160C0E904128161C161016285
:102930004162FFF7FBFC002800D0FEE710BD00005D
:102940000010014018010020090700284FEA11611A
:1029500006DA00F00F0000F1E02080F8141D704747
:1029600000F1E02080F8001470477047704710B500
:10297000FEF74EFDBDE81040FFF7D4BC2E4870B501
:10298000B4B0016841F080510160006800F08050EF
:1029900032902A48016841F44041016000680024F7
:1029A00029AB00F4404032900225219510200821E7
:1029B000D822CDE9275483E8260001262C95CDE9BD
:1029C000246021A8FFF7A6FA00B1FEE7FEF700FF9A
:1029D00000B1FEE74FF480522F944FF4A0510F2026
:1029E000CDE93012CDE92D0507212DA8FFF7A4F977
:1029F00000B1FEE7CDE90754482000903221119440
:102A0000CDE90A64CDE905156846FEF717FF00B168
:102A1000FEE7FFF727FA4FF47A71B0FBF1F0FFF70A
:102A20006EFC0420FFF75EFC0022501E1146FEF7EC
:102A30009DFE34B070BD0000403802400070004080
:102A4000104A30B51048146800210F4B44F470044C
:102A50001460083305680D4A0D4C45F0010505600A
:102A600019600368051D1340074A03600C322C608F
:102A70000568E305034C25F480250560803C116062
:102A8000236030BD88ED00E000380240FFFFF6FE15
:102A90001030002490F82410C90706D00168836A1A
:102AA0004A6822F400321A434A6090F824108907D9
:102AB00006D50168C36A4A6822F480321A434A6024
:102AC00090F82410490706D50168036B4A6822F480
:102AD00080221A434A6090F82410090706D501683D
:102AE000436B4A6822F400421A434A6090F824106B
:102AF000C90606D50168836B8A6822F480521A439E
:102B00008A6090F82410890606D50168C36B8A682C
:102B100022F400521A438A6090F82410490611D515
:102B20000168036C4A6822F480121A434A60016CFF
:102B3000B1F5801F06D10168436C4A6822F4C002D7
:102B40001A434A6090F82410090606D50168826C81
:102B5000486820F4002010434860704738B50025CD
:102B60000446C566FEF74EFC034620680068000771
:102B70000BD56FF07E400090002220464FF40011EC
:102B800000F038F908B1032038BD202084F869002E
:102B900084F8685084F86A00002038BD2DE9F047B9
:102BA00004468068874B884F2668D4E90415E2699B
:102BB0000843D6F800C010211543002228431546CB
:102BC0000CEA030C814B4CEA000CC6F800C04FF431
:102BD00000492068D4F80CC0466826F4405646EAFE
:102BE0000C0646602668D4F82080A069D6F808C094
:102BF00040EA08002CF4306C4CEA000CC6F808C01F
:102C00002068B8420AD11B6813F0030352D0012B8D
:102C10007AD0022B76D0032B79D177E06C4EB0427C
:102C20000AD11B6813F00C036AD0042B6CD0082B5C
:102C300068D00C2B6BD169E0664EB0420AD11B689C
:102C400013F030035CD0102B5ED0202B5AD0302BE9
:102C50005DD15BE0604EB0420AD11B6813F0C00347
:102C60004ED0402B50D0802B4CD0C02B4FD14DE0BC
:102C70005A4EB0420DD11B6813F4407340D0B3F5E7
:102C8000807F41D0B3F5007F3CD0B3F5407F3ED18B
:102C90003CE0534EB0420FD11B6813F4406309D09F
:102CA000B3F5806F30D0B3F5006F2BD0B3F5406F24
:102CB0002DD12BE001212AE04A4EB0420DD11B68F4
:102CC00013F440531CD0B3F5805F1DD0B3F5005F03
:102CD00018D0B3F5405F1AD118E0434EB04216D178
:102CE0001B6813F440430BD0B3F5804F0CD04B4519
:102CF00008D0B3F5404F0AD108E005E002E0FFE755
:102D0000002104E0022102E0042100E00821E6693C
:102D10004E452AD109291FD2DFE801F00508141E0B
:102D2000171E1E1E1A00FFF7A3F801E0FFF7B0F808
:102D30000146D4F80400490001EB5001B1FBF0F06A
:102D400082B20AE029496068F6E7FFF7B1F8EFE7D9
:102D500060684FF48031EFE70125216822F00F0011
:102D6000C2F342021043C86028E0092925D2DFE8F7
:102D700001F005080B24102424241C00FFF778F828
:102D800009E0FFF785F806E06168194A02EB510295
:102D90000EE0FFF78DF80146D4E9002001EB500169
:102DA000B1FBF0F080B2D06008E0616809EB51023D
:102DB000B2FBF1F189B2C16000E001252846BDE80F
:102DC000F0870000F369FFEF0010014090380240E7
:102DD0000044004000480040004C004000500040CB
:102DE0000014014000780040007C00400048E801E9
:102DF0000024F4002DE9F041984617460E4604469B
:102E0000069D1DE0681C1BD02DB1FEF7FBFAA0EB60
:102E10000800A84214D32168202000220B6823F464
:102E2000D0730B6021688B6823F001038B6084F8FA
:102E3000690084F86A00032084F86820BDE8F08106
:102E40002068C06936EA000004D00020B842D9D01A
:102E50000020F3E70120F9E7014A024900F013B826
:102E6000A92E00082C00002002E008C8121F08C18B
:102E7000002AFAD170477047002001E001C1121FFB
:102E8000002AFBD170472DE9F04116460F46044653
:102E9000002503E03946B047641C6D1C20780028EB
:102EA000F8D12846BDE8F08113B5044801224FF659
:102EB000FF736946FFF79CFA00981CBD18010020BB
:102EC00086B0BFF34F8FBFF36F8F48480024464949
:102ED0000460086840F400300860BFF34F8FBFF310
:102EE0006F8F414870300460BFF34F8F001F3F4D1C
:102EF00043F6FF7610350068C0F34E32C0F3C903C5
:102F000006EA4217184600BF47EA807CC5F800C0B1
:102F1000401EF9D2521EF3D2BFF34F8F086840F41F
:102F200080300860BFF34F8FBFF36F8FFEF778FAE2
:102F3000FFF724FDFFF726FCFFF7DEFBFFF7FAFBA8
:102F4000FFF786FCFFF7E4FCFDF7E4FA4FF040459D
:102F500000202946FDF730FBFDF7BCFA0646FDF7D9
:102F6000C9FA4643012005EB8601FDF725FBFDF775
:102F700001FA0020FDF7F8FBAD112846FDF7B4F982
:102F80000120FDF7F1FB2816FDF7AEF92846FDF705
:102F9000FFFB00210323084615A2FDF705FA0220D6
:102FA00001218DE81300164C69462046FEF738F9DA
:102FB000002220460221FEF71FFA124E4FF4FA7546
:102FC00030680028FCD0002220460221FEF714FAC7
:102FD0002846FEF767F8012220460221FEF70CFA88
:102FE0002846FEF75FF8EBE714ED00E050EF00E055
:102FF0004C454420464C415348203D2030000000C1
:1030000000200240000000200006101600061016E6
:103010000000000000000000010203040607080988
:103020000000000001020304000000000000000096
:103030000000000000000000000000000000000090
:103040000000000000000000000000000000000080
:103050000000000000000000000000000000000070
:103060000000000000000000000000000000000060
:1030700000000000000003800003800003800003C4
:103080008000038000038000038000038000038031
:1030900000010000010000000000000000038000AB
:1030A000038000000000000000000000000000009D
:1030B0000000000000000000000000000000000010
:1030C000000E70000E70000E70000420000420003E
:1030D00004200004200000000000000000000000A8
:1030E00000000000000000000000000000000000E0
:1030F00000000000000000000000000000000000D0
:103100000000000000000660000660000660000687
:1031100060000660003FF8003FF8000660000CC049
:10312000003FF8003FF8000CC0000CC0000CC000CD
:103130000CC0000CC00000000000000000000000F7
:10314000000000000000000000000001800001807D
:103150000007B0000FF0001870001870001C00008D
:103160000F800007E00000F0001830001C30001C49
:1031700070001FE0001BC000018000018000018082
:1031800000018000000000000000000000000000BE
:103190000000000000000780000FC0001CE00018C5
:1031A00060001860001CE0000FF80007E0001FF04E
:1031B0000007380006180006180007380003F00062
:1031C00001E000000000000000000000000000001E
:1031D00000000000000000000000000000000000EF
:1031E0000000000003F00007F0000C60000C00007D
:1031F0000C00000600000700000F9C001DFC0018DA
:10320000F0001870000FFC0007DC00000000000058
:1032100000000000000000000000000000000000AE
:103220000000000000000000000380000380000395
:10323000800001000001000001000001000000000A
:10324000000000000000000000000000000000007E
:10325000000000000000000000000000000000006E
:103260000000000000000000000000000000001846
:103270000000380000700000F00000E00000E000F6
:1032800001C00001C00001C00001C00001C0000178
:10329000C00000E00000E000007000007000003896
:1032A0000000180000000000000000000000000006
:1032B0000000000000001800001C00000E00000EBE
:1032C0000000070000070000038000038000038067
:1032D0000003800003800003800007000007000057
:1032E0000F00000E00001C0000180000000000008D
:1032F000000000000000000000000000000001804D
:10330000000180000180001DB8001FF80007E000E8
:1033100003C00003C000066000066000000000005B
:10332000000000000000000000000000000000009D
:10333000000000000000000000000000000000008D
:1033400000000000000000000000000001800001FB
:1033500080000180000180000180003FFC003FFCF4
:1033600000018000018000018000018000018000D8
:10337000000000000000000000000000000000004D
:10338000000000000000000000000000000000003D
:10339000000000000000000000000000000000002D
:1033A000000000000000000000000000000000001D
:1033B000000000E00000C00001C0000180000180AA
:1033C00000030000030000000000000000000000F7
:1033D00000000000000000000000000000000000ED
:1033E00000000000000000000000001FF8001FF8AF
:1033F00000000000000000000000000000000000CD
:1034000000000000000000000000000000000000BC
:1034100000000000000000000000000000000000AC
:10342000000000000000000000000000000000009C
:10343000000000000000000000000000000000008C
:10344000000003C00003C00003C000000000000033
:10345000000000000000000000000000000000006C
:103460000018000018000038000030000070000054
:10347000600000600000C00000C00001800001800A
:10348000000300000300000600000600000E00001C
:103490000C00001C000018000018000000000000D4
:1034A000000000000000000000000000000003C059
:1034B0000007E0000C30000C30001818001818004D
:1034C0001818001818001818001818001818000C00
:1034D00030000C300007E00003C0000000000000D6
:1034E00000000000000000000000000000000000DC
:1034F0000000000000000080000780001F80001D09
:1035000080000180000180000180000180000180B6
:10351000000180000180000180000180001FF80090
:103520001FF8000000000000000000000000000084
:10353000000000000000000000000000000007C0C4
:10354000001FF0003830003018003018000018005C
:1035500000300000600001C0000380000600000C85
:1035600000001800003FF8003FF8000000000000D5
:10357000000000000000000000000000000000004B
:1035800000000000000003C0000FE0000C7000000D
:10359000300000300000600003C00003E000007055
:1035A000000018000018000018001838001FF00074
:1035B0000FC000000000000000000000000000003C
:1035C000000000000000000000000000000000E01B
:1035D0000001E00001E000036000066000066000FA
:1035E0000C60000C60001860003060003FF8003F85
:1035F000F80000600003F80003F80000000000007D
:1036000000000000000000000000000000000000BA
:103610000000000000001FF0001FF000180000185C
:1036200000001800001BC0001FF0001C3000001834
:10363000000018000018000018003030003FF000B3
:103640000FC00000000000000000000000000000AB
:10365000000000000000000000000000000000F872
:103660000003F8000700000E00000C000018000026
:103670001BC0001FF0001C3000181800181800189C
:1036800018000C38000FF00003E0000000000000FC
:10369000000000000000000000000000000000002A
:1036A0000000000000001FF8001FF80018180018A4
:1036B0003800003000003000007000006000006042
:1036C0000000E00000C00000C00001C00001800058
:1036D0000180000000000000000000000000000069
:1036E000000000000000000000000000000007E0F3
:1036F000000FF0001C38001818001818000C3000DB
:1037000007E00007E0000C30001818001818001837
:1037100018001C38000FF00007E000000000000057
:103720000000000000000000000000000000000099
:1037300000000000000007C0000FF0001C3000185F
:1037400018001818001818000C38000FF80003D8DB
:103750000000180000300000700000E0001FC000F2
:103760001F0000000000000000000000000000003A
:103770000000000000000000000000000000000049
:103780000000000000000000000003C00003C000B3
:1037900003C0000000000000000000000000000066
:1037A000000003C00003C00003C0000000000000D0
:1037B0000000000000000000000000000000000009
:1037C00000000000000000000000000000000000F9
:1037D000000000F00000F00000F000000000000019
:1037E0000000000000000000E00001C000018000B7
:1037F0000180000300000200000000000000000043
:1038000000000000000000000000000000000000B8
:1038100000000000001C00003C0000F00003C0009D
:103820000F00003C0000F000003C00000F0000030F
:10383000C00000F000003C00001C00000000000080
:103840000000000000000000000000000000000078
:103850000000000000000000000000000000000068
:1038600000000000007FFC007FFC00000000000062
:10387000007FFC007FFC0000000000000000000052
:103880000000000000000000000000000000000038
:103890000000000000000000000000000000000028
:1038A000000000007000007800001E00000780008B
:1038B00001E000007800001E0000780001E0000731
:1038C00080001E0000780000700000000000000072
:1038D00000000000000000000000000000000000E8
:1038E00000000000000000000007C0000FE000180A
:1038F000700018300018300000700000E00003C0B5
:10390000000380000300000000000000000700002A
:1039100007000000000000000000000000000000A0
:10392000000000000000000000000000000003E0B4
:103930000007F0000E38000C180018780018F80086
:1039400019D80019980019980019980018F800184B
:1039500078001800000C00000E180007F80003E0C3
:103960000000000000000000000000000000000057
:103970000000000000000000001F80001FC00001C8
:10398000C0000360000360000630000630000C3009
:10399000000FF8001FF800180C00300C00FC7F002E
:1039A000FC7F00000000000000000000000000009C
:1039B0000000000000000000000000000000000007
:1039C000007FE0007FF00018380018180018180079
:1039D0001838001FF0001FF800181C00180C001801
:1039E0000C00180C007FF8007FF0000000000000C1
:1039F00000000000000000000000000000000000C7
:103A000000000000000000000003EC000FFC001CA0
:103A10001C00180C00300C0030000030000030009A
:103A200000300000300000180C001C1C000FF800D3
:103A300003F0000000000000000000000000000093
:103A40000000000000000000000000000000000076
:103A5000007FC0007FF000183800181800180C0014
:103A6000180C00180C00180C00180C00180C00188A
:103A700018001838007FF0007FE000000000000010
:103A80000000000000000000000000000000000036
:103A90000000000000000000007FF8007FF8001820
:103AA00018001818001998001980001F80001F8046
:103AB000001980001998001818001818007FF800E5
:103AC0007FF800000000000000000000000000007F
:103AD00000000000000000000000000000000000E6
:103AE000003FFC003FFC000C0C000C0C000CCC0058
:103AF0000CC0000FC0000FC0000CC0000CC0000CB8
:103B000000000C00003FC0003FC0000000000000AB
:103B100000000000000000000000000000000000A5
:103B200000000000000000000003EC000FFC001C7F
:103B30001C00180C00300C0030000030000030FE7B
:103B40000030FE00300C00380C001C1C000FFC0084
:103B500003F0000000000000000000000000000072
:103B60000000000000000000000000000000000055
:103B7000007E7E007E7E00181800181800181800BD
:103B80001818001FF8001FF800181800181800185F
:103B900018001818007E7E007E7E000000000000E5
:103BA0000000000000000000000000000000000015
:103BB0000000000000000000001FF8001FF80001D6
:103BC00080000180000180000180000180000180F0
:103BD000000180000180000180000180001FF800CA
:103BE0001FF80000000000000000000000000000BE
:103BF00000000000000000000000000000000000C5
:103C00000007FE0007FE000030000030000030001A
:103C100000300000300030300030300030300030F4
:103C200030003060003FE0000F8000000000000026
:103C30000000000000000000000000000000000084
:103C40000000000000000000007F3E007F3E0018E2
:103C5000300018600018C0001980001B80001FC0D1
:103C6000001CE0001870001830001838007F1F009A
:103C70007F1F0000000000000000000000000000A6
:103C80000000000000000000000000000000000034
:103C9000007F80007F80000C00000C00000C000002
:103CA0000C00000C00000C00000C0C000C0C000CB4
:103CB0000C000C0C007FFC007FFC000000000000EA
:103CC00000000000000000000000000000000000F4
:103CD000000000000000000000F00F00F81F003896
:103CE0001C003C3C003C3C00366C00366C0033CC85
:103CF0000033CC00318C00300C00300C00FE7F0013
:103D0000FE7F000000000000000000000000000036
:103D100000000000000000000000000000000000A3
:103D20000078FE0078FE001C18001E18001F180006
:103D30001B18001B980019D80018D80018F8001894
:103D400078001838007F18007F180000000000007D
:103D50000000000000000000000000000000000063
:103D600000000000000000000003C0000FF0001C75
:103D70003800181800381C00300C00300C00300CD3
:103D800000300C00381C001818001C38000FF00020
:103D900003C0000000000000000000000000000060
:103DA0000000000000000000000000000000000013
:103DB000003FF0003FF8000C1C000C0C000C0C0045
:103DC0000C0C000C18000FF8000FE0000C00000CA9
:103DD00000000C00003FC0003FC0000000000000D9
:103DE00000000000000000000000000000000000D3
:103DF00000000000000000000003C0000FF0001CE5
:103E00003800181800381C00300C00300C00300C42
:103E100000300C00381C001818001C38000FF0008F
:103E200007C00007CC000FFC000C380000000000A9
:103E30000000000000000000000000000000000082
:103E4000007FE0007FF000183800181800181800F4
:103E50001838001FF0001FC00018E000187000188C
:103E600030001838007F1E007F0E000000000000A8
:103E70000000000000000000000000000000000042
:103E800000000000000000000007D8000FF8001C30
:103E900038001818001818001E00000FC00003F0AA
:103EA000000078001818001818001C38001FF000D7
:103EB0001BE0000000000000000000000000000007
:103EC00000000000000000000000000000000000F2
:103ED000003FFC003FFC00318C00318C00318C0035
:103EE000318C000180000180000180000180000110
:103EF00080000180000FF0000FF0000000000000C3
:103F000000000000000000000000000000000000B1
:103F10000000000000000000007E7E007E7E001891
:103F20001800181800181800181800181800181889
:103F3000001818001818001818000C30000FF000B6
:103F400003C00000000000000000000000000000AE
:103F50000000000000000000000000000000000061
:103F6000007F7F007F7F00180C000C18000C1800E9
:103F70000C180006300006300003600003600003E8
:103F8000600001C00001C0000080000000000000CF
:103F90000000000000000000000000000000000021
:103FA000000000000000000000FE3F80FE3F803067
:103FB000060030060030860019CC0019CC001B6CBE
:103FC000001B6C001E7C000E38000E38000C180020
:103FD0000C180000000000000000000000000000BD
:103FE00000000000000000000000000000000000D1
:103FF000007E7E007E7E001818000C3000066000F7
:1040000003C00001800001800003C0000660000CB6
:1040100030001818007E7E007E7E00000000000048
:104020000000000000000000000000000000000090
:104030000000000000000000007C7E007C7E001874
:1040400018000C300006600006600003C00001800C
:10405000000180000180000180000180000FF0005D
:104060000FF0000000000000000000000000000051
:104070000000000000000000000000000000000040
:10408000001FF8001FF80018180018300018600012
:1040900018C0000180000300000618000C1800186A
:1040A00018003018003FF8003FF800000000000042
:1040B0000000000000000000000000000000000000
:1040C00000000000000001F00001F000018000018C
:1040D00080000180000180000180000180000180DB
:1040E000000180000180000180000180000180004B
:1040F00001800001800001F00001F00000000000DC
:1041000000000000000000001800001800001C0063
:10411000000C00000E000006000006000003000076
:1041200003000001800001800000C00000C000000A
:1041300060000060000070000030000038000018CF
:104140000000180000000000000000000000000057
:104150000000000000000F80000F800001800001BF
:10416000800001800001800001800001800001804A
:1041700000018000018000018000018000018000BA
:104180000180000180000F80000F8000000000000F
:10419000000000000000000000000000800001C0DE
:1041A0000003E0000770000630000C1800180C0037
:1041B00010040000000000000000000000000000EB
:1041C00000000000000000000000000000000000EF
:1041D00000000000000000000000000000000000DF
:1041E00000000000000000000000000000000000CF
:1041F00000000000000000000000000000000000BF
:1042000000000000000000000000000000000000AE
:10421000000000000000000000000000000000009E
:104220000000FFFF00FFFF0000000003000003800C
:104230000000E0000060000000000000000000003E
:10424000000000000000000000000000000000006E
:10425000000000000000000000000000000000005E
:10426000000000000000000000000000000000004E
:10427000000000000000000000000000000000003E
:1042800000000FC0001FE00000300000300007F009
:10429000001FF0003830003030003070001FFC008C
:1042A0000FBC000000000000000000000000000043
:1042B0000000000000000000000000000000780086
:1042C000007800001800001800001BE0001FF80034
:1042D0001C1800180C00180C00180C00180C001802
:1042E0000C001C18007FF8007BE0000000000000BC
:1042F00000000000000000000000000000000000BE
:1043000000000000000000000000000000000000AD
:10431000000003EC000FFC001C1C00380C00300CEB
:1043200000300000300000380C001C1C000FF800AA
:1043300003F000000000000000000000000000008A
:1043400000000000000000000000000000000078F5
:104350000000780000180000180007D8001FF800BF
:1043600018380030180030180030180030180030AD
:1043700018001838001FFE0007DE000000000000D3
:10438000000000000000000000000000000000002D
:10439000000000000000000000000000000000001D
:1043A000000007E0001FF800181800300C003FFC68
:1043B000003FFC00300000300000180C001FFC0023
:1043C00007F00000000000000000000000000000F6
:1043D000000000000000000000000000000001FCE0
:1043E0000003FC000600000600003FF8003FF80054
:1043F0000600000600000600000600000600000699
:1044000000000600003FF0003FF000000000000048
:10441000000000000000000000000000000000009C
:10442000000000000000000000000000000000008C
:10443000000007DE001FFE0018380030180030189A
:10444000003018003018003018001838001FF8002D
:1044500007D8000018000018000038000FF0000F07
:10446000C000000000000000000000000000780014
:10447000007800001800001800001BE0001FF0008A
:104480001C38001818001818001818001818001800
:1044900018001818007E7E007E7E000000000000DC
:1044A000000000000000000000000000000000000C
:1044B00000000000000001800001800000000000FA
:1044C00000001F80001F800001800001800001802B
:1044D000000180000180000180000180003FFC009D
:1044E0003FFC000000000000000000000000000091
:1044F000000000000000000000000000000000C0FC
:104500000000C0000000000000001FF0001FF000CD
:1045100000300000300000300000300000300000AB
:10452000300000300000300000300000300000306B
:10453000000070001FE0001F80000000000000006D
:104540000000000000003C00003C00000C00000CDB
:1045500000000CF8000CF8000CC0000D80000F806B
:10456000000F00000F80000DC0000CE0003C7C003C
:104570003C7C000000000000000000000000000083
:1045800000000000000000000000000000001F808C
:10459000001F800001800001800001800001800078
:1045A0000180000180000180000180000180000185
:1045B00080000180003FFC003FFC00000000000084
:1045C00000000000000000000000000000000000EB
:1045D00000000000000000000000000000000000DB
:1045E0000000F77800FFFC0039CC00318C00318CE2
:1045F00000318C00318C00318C00318C00FDEF00DB
:10460000FDEF0000000000000000000000000000BE
:10461000000000000000000000000000000000009A
:10462000000000000000000000007BE0007FF000C0
:104630001C3800181800181800181800181800184E
:1046400018001818007E7E007E7E0000000000002A
:10465000000000000000000000000000000000005A
:10466000000000000000000000000000000000004A
:10467000000003C0000FF0001C3800381C00300C94
:1046800000300C00300C00381C001C38000FF0000B
:1046900003C0000000000000000000000000000057
:1046A000000000000000000000000000000000000A
:1046B000000000000000000000007BE0007FF80028
:1046C0001C1800180C00180C00180C00180C00180E
:1046D0000C001C18001FF8001BE000180000180058
:1046E000001800007F00007F0000000000000000B4
:1046F00000000000000000000000000000000000BA
:10470000000007DE001FFE001838003018003018C7
:10471000003018003018003018001838001FF8005A
:1047200007D80000180000180000180000FE000064
:10473000FE0000000000000000000000000000007B
:10474000000000000000000000003E78003EFC0079
:1047500007CC000700000600000600000600000667
:1047600000000600003FF0003FF0000000000000E5
:104770000000000000000000000000000000000039
:104780000000000000000000000000000000000029
:10479000000007F8000FF8001818001818001F8014
:1047A000000FF00000F8001818001838001FF00083
:1047B0001FE00000000000000000000000000000FA
:1047C00000000000000000000000000000000C00DD
:1047D000000C00000C00000C00003FF0003FF00057
:1047E0000C00000C00000C00000C00000C00000C81
:1047F00000000C1C0007FC0003F00000000000009B
:1048000000000000000000000000000000000000A8
:104810000000000000000000000000000000000098
:104820000000787800787800181800181800181818
:10483000001818001818001818001838000FFE008B
:1048400007DE000000000000000000000000000083
:104850000000000000000000000000000000000058
:10486000000000000000000000007C3E007C3E00D4
:104870001818001818000C30000C300006600006F4
:10488000600007E00003C00003C00000000000005B
:104890000000000000000000000000000000000018
:1048A0000000000000000000000000000000000008
:1048B0000000783C00783C003118003398003398B1
:1048C000001AB0001EF0001EF0001C60000C60001A
:1048D0000C6000000000000000000000000000006C
:1048E00000000000000000000000000000000000C8
:1048F000000000000000000000003E7C003E7C0044
:104900000C300006600003C00001800003C00006F8
:1049100060000C30003E7C003E7C00000000000087
:104920000000000000000000000000000000000087
:104930000000000000000000000000000000000077
:1049400000007E1F007E1F00180C000C18000C18C1
:104950000006300006300003600003E00001C000E4
:1049600000C0000180000180000300003FC0003F44
:10497000C000000000000000000000000000000077
:10498000000000000000000000001FF8001FF800F9
:1049900018300018600000C000018000030000060D
:1049A00018000C18001FF8001FF80000000000009D
:1049B00000000000000000000000000000000000F7
:1049C00000000000000000E00001E00001800001A4
:1049D00080000180000180000180000180000380D0
:1049E00000070000038000018000018000018000BA
:1049F00001800001800001E00000E00000000000F4
:104A00000000000000000000000000000000018025
:104A10000001800001800001800001800001800011
:104A20000180000180000180000180000180000100
:104A30008000018000018000018000018000018071
:104A400000018000000000000000000000000000E5
:104A50000000000000000700000780000180000146
:104A6000800001800001800001800001800001C001
:104A70000000E00001C00001800001800001800012
:104A80000180000180000780000700000000000096
:104A90000000000000000000000000000000000016
:104AA0000000000000000000000000000000000006
:104AB0000E00001F18003BB80031F00000E00000BD
:104AC00000000000000000000000000000000000E6
:104AD00000000000000000000000000000000000D6
:104AE000004B00080000002030000000682E000885
:104AF000304B00083000002030080000782E0008FD
:104B000000000000000000000000000001000000A4
:104B100010000000000000000024F400000000006D
:104B200028300008110018000101000000000000FA
:04000005080001C925
:00000001FF
